{
  "_format": "hh-sol-artifact-1",
  "contractName": "PeloNFT",
  "sourceName": "contracts/PeloNFT.sol",
  "abi": [
    {
      "inputs": [],
      "stateMutability": "nonpayable",
      "type": "constructor"
    },
    {
      "anonymous": false,
      "inputs": [
        {
          "indexed": true,
          "internalType": "address",
          "name": "owner",
          "type": "address"
        },
        {
          "indexed": true,
          "internalType": "address",
          "name": "approved",
          "type": "address"
        },
        {
          "indexed": true,
          "internalType": "uint256",
          "name": "tokenId",
          "type": "uint256"
        }
      ],
      "name": "Approval",
      "type": "event"
    },
    {
      "anonymous": false,
      "inputs": [
        {
          "indexed": true,
          "internalType": "address",
          "name": "owner",
          "type": "address"
        },
        {
          "indexed": true,
          "internalType": "address",
          "name": "operator",
          "type": "address"
        },
        {
          "indexed": false,
          "internalType": "bool",
          "name": "approved",
          "type": "bool"
        }
      ],
      "name": "ApprovalForAll",
      "type": "event"
    },
    {
      "anonymous": false,
      "inputs": [
        {
          "indexed": false,
          "internalType": "address",
          "name": "sender",
          "type": "address"
        },
        {
          "indexed": false,
          "internalType": "uint256",
          "name": "tokenId",
          "type": "uint256"
        }
      ],
      "name": "NewPeloNFTMinted",
      "type": "event"
    },
    {
      "anonymous": false,
      "inputs": [
        {
          "indexed": true,
          "internalType": "address",
          "name": "from",
          "type": "address"
        },
        {
          "indexed": true,
          "internalType": "address",
          "name": "to",
          "type": "address"
        },
        {
          "indexed": true,
          "internalType": "uint256",
          "name": "tokenId",
          "type": "uint256"
        }
      ],
      "name": "Transfer",
      "type": "event"
    },
    {
      "inputs": [
        {
          "internalType": "address",
          "name": "to",
          "type": "address"
        },
        {
          "internalType": "uint256",
          "name": "tokenId",
          "type": "uint256"
        }
      ],
      "name": "approve",
      "outputs": [],
      "stateMutability": "nonpayable",
      "type": "function"
    },
    {
      "inputs": [
        {
          "internalType": "address",
          "name": "owner",
          "type": "address"
        }
      ],
      "name": "balanceOf",
      "outputs": [
        {
          "internalType": "uint256",
          "name": "",
          "type": "uint256"
        }
      ],
      "stateMutability": "view",
      "type": "function"
    },
    {
      "inputs": [
        {
          "internalType": "uint256",
          "name": "tokenId",
          "type": "uint256"
        }
      ],
      "name": "getApproved",
      "outputs": [
        {
          "internalType": "address",
          "name": "",
          "type": "address"
        }
      ],
      "stateMutability": "view",
      "type": "function"
    },
    {
      "inputs": [],
      "name": "getTotalNFTsMintedSoFar",
      "outputs": [
        {
          "internalType": "uint256",
          "name": "",
          "type": "uint256"
        }
      ],
      "stateMutability": "view",
      "type": "function"
    },
    {
      "inputs": [
        {
          "internalType": "address",
          "name": "owner",
          "type": "address"
        },
        {
          "internalType": "address",
          "name": "operator",
          "type": "address"
        }
      ],
      "name": "isApprovedForAll",
      "outputs": [
        {
          "internalType": "bool",
          "name": "",
          "type": "bool"
        }
      ],
      "stateMutability": "view",
      "type": "function"
    },
    {
      "inputs": [],
      "name": "makeAPeloNFT",
      "outputs": [],
      "stateMutability": "nonpayable",
      "type": "function"
    },
    {
      "inputs": [],
      "name": "name",
      "outputs": [
        {
          "internalType": "string",
          "name": "",
          "type": "string"
        }
      ],
      "stateMutability": "view",
      "type": "function"
    },
    {
      "inputs": [
        {
          "internalType": "uint256",
          "name": "tokenId",
          "type": "uint256"
        }
      ],
      "name": "ownerOf",
      "outputs": [
        {
          "internalType": "address",
          "name": "",
          "type": "address"
        }
      ],
      "stateMutability": "view",
      "type": "function"
    },
    {
      "inputs": [
        {
          "internalType": "uint256",
          "name": "tokenId",
          "type": "uint256"
        }
      ],
      "name": "pickRandomClassType",
      "outputs": [
        {
          "internalType": "string",
          "name": "",
          "type": "string"
        }
      ],
      "stateMutability": "view",
      "type": "function"
    },
    {
      "inputs": [
        {
          "internalType": "uint256",
          "name": "tokenId",
          "type": "uint256"
        }
      ],
      "name": "pickRandomInstructor",
      "outputs": [
        {
          "internalType": "string",
          "name": "",
          "type": "string"
        }
      ],
      "stateMutability": "view",
      "type": "function"
    },
    {
      "inputs": [
        {
          "internalType": "uint256",
          "name": "tokenId",
          "type": "uint256"
        }
      ],
      "name": "pickRandomLength",
      "outputs": [
        {
          "internalType": "string",
          "name": "",
          "type": "string"
        }
      ],
      "stateMutability": "view",
      "type": "function"
    },
    {
      "inputs": [
        {
          "internalType": "address",
          "name": "from",
          "type": "address"
        },
        {
          "internalType": "address",
          "name": "to",
          "type": "address"
        },
        {
          "internalType": "uint256",
          "name": "tokenId",
          "type": "uint256"
        }
      ],
      "name": "safeTransferFrom",
      "outputs": [],
      "stateMutability": "nonpayable",
      "type": "function"
    },
    {
      "inputs": [
        {
          "internalType": "address",
          "name": "from",
          "type": "address"
        },
        {
          "internalType": "address",
          "name": "to",
          "type": "address"
        },
        {
          "internalType": "uint256",
          "name": "tokenId",
          "type": "uint256"
        },
        {
          "internalType": "bytes",
          "name": "_data",
          "type": "bytes"
        }
      ],
      "name": "safeTransferFrom",
      "outputs": [],
      "stateMutability": "nonpayable",
      "type": "function"
    },
    {
      "inputs": [
        {
          "internalType": "address",
          "name": "operator",
          "type": "address"
        },
        {
          "internalType": "bool",
          "name": "approved",
          "type": "bool"
        }
      ],
      "name": "setApprovalForAll",
      "outputs": [],
      "stateMutability": "nonpayable",
      "type": "function"
    },
    {
      "inputs": [
        {
          "internalType": "bytes4",
          "name": "interfaceId",
          "type": "bytes4"
        }
      ],
      "name": "supportsInterface",
      "outputs": [
        {
          "internalType": "bool",
          "name": "",
          "type": "bool"
        }
      ],
      "stateMutability": "view",
      "type": "function"
    },
    {
      "inputs": [],
      "name": "symbol",
      "outputs": [
        {
          "internalType": "string",
          "name": "",
          "type": "string"
        }
      ],
      "stateMutability": "view",
      "type": "function"
    },
    {
      "inputs": [
        {
          "internalType": "uint256",
          "name": "tokenId",
          "type": "uint256"
        }
      ],
      "name": "tokenURI",
      "outputs": [
        {
          "internalType": "string",
          "name": "",
          "type": "string"
        }
      ],
      "stateMutability": "view",
      "type": "function"
    },
    {
      "inputs": [
        {
          "internalType": "address",
          "name": "from",
          "type": "address"
        },
        {
          "internalType": "address",
          "name": "to",
          "type": "address"
        },
        {
          "internalType": "uint256",
          "name": "tokenId",
          "type": "uint256"
        }
      ],
      "name": "transferFrom",
      "outputs": [],
      "stateMutability": "nonpayable",
      "type": "function"
    }
  ],
  "bytecode": "0x608060405260405180610100016040528060dc815260200162004bec60dc9139600890805190602001906200003692919062000adf565b506040518060c001604052806040518060400160405280600581526020017f35206d696e00000000000000000000000000000000000000000000000000000081525081526020016040518060400160405280600681526020017f3130206d696e000000000000000000000000000000000000000000000000000081525081526020016040518060400160405280600681526020017f3135206d696e000000000000000000000000000000000000000000000000000081525081526020016040518060400160405280600681526020017f3230206d696e000000000000000000000000000000000000000000000000000081525081526020016040518060400160405280600681526020017f3330206d696e000000000000000000000000000000000000000000000000000081525081526020016040518060400160405280600681526020017f3435206d696e00000000000000000000000000000000000000000000000000008152508152506009906006620001b492919062000b70565b506040518061022001604052806040518060400160405280600781526020017f5761726d2055700000000000000000000000000000000000000000000000000081525081526020016040518060400160405280601281526020017f46756c6c20426f647920537472656e677468000000000000000000000000000081525081526020016040518060400160405280601581526020017f43686573742026204261636b20537472656e677468000000000000000000000081525081526020016040518060400160405280601681526020017f476c757465732026204c65677320537472656e6774680000000000000000000081525081526020016040518060400160405280601481526020017f41726d732026204c69676874205765696768747300000000000000000000000081525081526020016040518060400160405280600781526020017f50696c617465730000000000000000000000000000000000000000000000000081525081526020016040518060400160405280600581526020017f426172726500000000000000000000000000000000000000000000000000000081525081526020016040518060400160405280600d81526020017f436f726520537472656e6774680000000000000000000000000000000000000081525081526020016040518060400160405280601381526020017f426f647977656967687420537472656e6774680000000000000000000000000081525081526020016040518060400160405280600981526020017f596f676120466c6f77000000000000000000000000000000000000000000000081525081526020016040518060400160405280600a81526020017f4d656469746174696f6e0000000000000000000000000000000000000000000081525081526020016040518060400160405280600b81526020017f484949542043617264696f00000000000000000000000000000000000000000081525081526020016040518060400160405280600a81526020017f53747265746368696e670000000000000000000000000000000000000000000081525081526020016040518060400160405280600a81526020017f427265617468776f726b0000000000000000000000000000000000000000000081525081526020016040518060400160405280600b81526020017f546162617461205269646500000000000000000000000000000000000000000081525081526020016040518060400160405280600f81526020017f506f776572205a6f6e652052696465000000000000000000000000000000000081525081526020016040518060400160405280600d81526020017f4654502054657374205269646500000000000000000000000000000000000000815250815250600a906011620005bc92919062000bd7565b50604051806101c001604052806040518060400160405280600a81526020017f416469746920536861680000000000000000000000000000000000000000000081525081526020016040518060400160405280600f81526020017f41647269616e2057696c6c69616d73000000000000000000000000000000000081525081526020016040518060400160405280600981526020017f416c6c79204c6f7665000000000000000000000000000000000000000000000081525081526020016040518060400160405280600c81526020017f4368617365205475636b6572000000000000000000000000000000000000000081525081526020016040518060400160405280600b81526020017f436f64792052696773627900000000000000000000000000000000000000000081525081526020016040518060400160405280600d81526020017f456d6d61204c6f766577656c6c0000000000000000000000000000000000000081525081526020016040518060400160405280600c81526020017f44656e6973204d6f72746f6e000000000000000000000000000000000000000081525081526020016040518060400160405280600f81526020017f48616e6e6168204672616e6b736f6e000000000000000000000000000000000081525081526020016040518060400160405280600981526020017f4a6573732053696d73000000000000000000000000000000000000000000000081525081526020016040518060400160405280600981526020017f4a657373204b696e67000000000000000000000000000000000000000000000081525081526020016040518060400160405280600d81526020017f4b72697374696e204d634765650000000000000000000000000000000000000081525081526020016040518060400160405280600c81526020017f4d6174742057696c70657273000000000000000000000000000000000000000081525081526020016040518060400160405280600681526020017f53616d20596f000000000000000000000000000000000000000000000000000081525081526020016040518060400160405280600e81526020017f54756e6465204f79656e6579696e000000000000000000000000000000000000815250815250600b90600e6200091392919062000c3e565b503480156200092157600080fd5b506040518060400160405280600781526020017f50656c6f4e4654000000000000000000000000000000000000000000000000008152506040518060400160405280600481526020017f50454c4f000000000000000000000000000000000000000000000000000000008152508160009080519060200190620009a692919062000adf565b508060019080519060200190620009bf92919062000adf565b50505062000a0d6040518060400160405280601e81526020017f54686973206973206d79204e465420636f6e74726163742e20576f616821000081525062000a1360201b620012bb1760201c565b62000e5f565b62000ab38160405160240162000a2a919062000d73565b6040516020818303038152906040527f41304fac000000000000000000000000000000000000000000000000000000007bffffffffffffffffffffffffffffffffffffffffffffffffffffffff19166020820180517bffffffffffffffffffffffffffffffffffffffffffffffffffffffff838183161783525050505062000ab660201b60201c565b50565b60008151905060006a636f6e736f6c652e6c6f679050602083016000808483855afa5050505050565b82805462000aed9062000de9565b90600052602060002090601f01602090048101928262000b11576000855562000b5d565b82601f1062000b2c57805160ff191683800117855562000b5d565b8280016001018555821562000b5d579182015b8281111562000b5c57825182559160200191906001019062000b3f565b5b50905062000b6c919062000ca5565b5090565b82805482825590600052602060002090810192821562000bc4579160200282015b8281111562000bc357825182908051906020019062000bb292919062000adf565b509160200191906001019062000b91565b5b50905062000bd3919062000cc4565b5090565b82805482825590600052602060002090810192821562000c2b579160200282015b8281111562000c2a57825182908051906020019062000c1992919062000adf565b509160200191906001019062000bf8565b5b50905062000c3a919062000cc4565b5090565b82805482825590600052602060002090810192821562000c92579160200282015b8281111562000c9157825182908051906020019062000c8092919062000adf565b509160200191906001019062000c5f565b5b50905062000ca1919062000cc4565b5090565b5b8082111562000cc057600081600090555060010162000ca6565b5090565b5b8082111562000ce8576000818162000cde919062000cec565b5060010162000cc5565b5090565b50805462000cfa9062000de9565b6000825580601f1062000d0e575062000d2f565b601f01602090049060005260206000209081019062000d2e919062000ca5565b5b50565b600062000d3f8262000d97565b62000d4b818562000da2565b935062000d5d81856020860162000db3565b62000d688162000e4e565b840191505092915050565b6000602082019050818103600083015262000d8f818462000d32565b905092915050565b600081519050919050565b600082825260208201905092915050565b60005b8381101562000dd357808201518184015260208101905062000db6565b8381111562000de3576000848401525b50505050565b6000600282049050600182168062000e0257607f821691505b6020821081141562000e195762000e1862000e1f565b5b50919050565b7f4e487b7100000000000000000000000000000000000000000000000000000000600052602260045260246000fd5b6000601f19601f8301169050919050565b613d7d8062000e6f6000396000f3fe608060405234801561001057600080fd5b50600436106101165760003560e01c806342842e0e116100a2578063a22cb46511610071578063a22cb465146102f3578063a266fb7a1461030f578063b88d4fde1461033f578063c87b56dd1461035b578063e985e9c51461038b57610116565b806342842e0e146102595780636352211e1461027557806370a08231146102a557806395d89b41146102d557610116565b8063095ea7b3116100e9578063095ea7b3146101b757806323b872dd146101d35780632868cdfd146101ef5780633cdabc0e1461021f5780633d2385a01461022957610116565b806301ffc9a71461011b578063060475901461014b57806306fdde0314610169578063081812fc14610187575b600080fd5b61013560048036038101906101309190612723565b6103bb565b6040516101429190613584565b60405180910390f35b61015361049d565b604051610160919061381f565b60405180910390f35b6101716104ba565b60405161017e919061359f565b60405180910390f35b6101a1600480360381019061019c9190612775565b61054c565b6040516101ae91906134f4565b60405180910390f35b6101d160048036038101906101cc91906126e7565b6105d1565b005b6101ed60048036038101906101e891906125e1565b6106e9565b005b61020960048036038101906102049190612775565b610749565b604051610216919061359f565b60405180910390f35b610227610867565b005b610243600480360381019061023e9190612775565b610a9a565b604051610250919061359f565b60405180910390f35b610273600480360381019061026e91906125e1565b610bb8565b005b61028f600480360381019061028a9190612775565b610bd8565b60405161029c91906134f4565b60405180910390f35b6102bf60048036038101906102ba919061257c565b610c8a565b6040516102cc919061381f565b60405180910390f35b6102dd610d42565b6040516102ea919061359f565b60405180910390f35b61030d600480360381019061030891906126ab565b610dd4565b005b61032960048036038101906103249190612775565b610f55565b604051610336919061359f565b60405180910390f35b61035960048036038101906103549190612630565b611073565b005b61037560048036038101906103709190612775565b6110d5565b604051610382919061359f565b60405180910390f35b6103a560048036038101906103a091906125a5565b611227565b6040516103b29190613584565b60405180910390f35b60007f80ac58cd000000000000000000000000000000000000000000000000000000007bffffffffffffffffffffffffffffffffffffffffffffffffffffffff1916827bffffffffffffffffffffffffffffffffffffffffffffffffffffffff1916148061048657507f5b5e139f000000000000000000000000000000000000000000000000000000007bffffffffffffffffffffffffffffffffffffffffffffffffffffffff1916827bffffffffffffffffffffffffffffffffffffffffffffffffffffffff1916145b80610496575061049582611354565b5b9050919050565b600060016104ab60076113be565b6104b591906138fe565b905090565b6060600080546104c990613b0d565b80601f01602080910402602001604051908101604052809291908181526020018280546104f590613b0d565b80156105425780601f1061051757610100808354040283529160200191610542565b820191906000526020600020905b81548152906001019060200180831161052557829003601f168201915b5050505050905090565b6000610557826113cc565b610596576040517f08c379a000000000000000000000000000000000000000000000000000000000815260040161058d9061377f565b60405180910390fd5b6004600083815260200190815260200160002060009054906101000a900473ffffffffffffffffffffffffffffffffffffffff169050919050565b60006105dc82610bd8565b90508073ffffffffffffffffffffffffffffffffffffffff168373ffffffffffffffffffffffffffffffffffffffff16141561064d576040517f08c379a0000000000000000000000000000000000000000000000000000000008152600401610644906137df565b60405180910390fd5b8073ffffffffffffffffffffffffffffffffffffffff1661066c611438565b73ffffffffffffffffffffffffffffffffffffffff16148061069b575061069a81610695611438565b611227565b5b6106da576040517f08c379a00000000000000000000000000000000000000000000000000000000081526004016106d1906136bf565b60405180910390fd5b6106e48383611440565b505050565b6106fa6106f4611438565b826114f9565b610739576040517f08c379a0000000000000000000000000000000000000000000000000000000008152600401610730906137ff565b60405180910390fd5b6107448383836115d7565b505050565b6060600061077d61075984611833565b60405160200161076991906134d2565b6040516020818303038152906040526119e0565b9050600b80549050816107909190613b88565b9050600b81815481106107cc577f4e487b7100000000000000000000000000000000000000000000000000000000600052603260045260246000fd5b9060005260206000200180546107e190613b0d565b80601f016020809104026020016040519081016040528092919081815260200182805461080d90613b0d565b801561085a5780601f1061082f5761010080835404028352916020019161085a565b820191906000526020600020905b81548152906001019060200180831161083d57829003601f168201915b5050505050915050919050565b603261087161049d565b106108b1576040517f08c379a00000000000000000000000000000000000000000000000000000000081526004016108a89061363f565b60405180910390fd5b60006108bd60076113be565b905060006108ca82610f55565b905060006108d783610a9a565b905060006108e484610749565b9050600060088484846040516020016109009493929190613385565b6040516020818303038152906040529050600061096c61091f87611a13565b60405160200161092f9190613405565b60405160208183030381529060405261094784611be8565b60405160200161095892919061346b565b604051602081830303815290604052611be8565b905060008160405160200161098191906134b0565b60405160208183030381529060405290506109d06040518060400160405280601581526020017f0a2d2d2d2d2d2d2d2d2d2d2d2d2d2d2d2d2d2d2d2d00000000000000000000008152506112bb565b6109d9816112bb565b610a176040518060400160405280601581526020017f2d2d2d2d2d2d2d2d2d2d2d2d2d2d2d2d2d2d2d2d0a00000000000000000000008152506112bb565b610a213388611da6565b610a2b8782611dc4565b610a4e604051806060016040528060258152602001613ce3602591398833611e38565b610a586007611ed7565b7f2758cf31b32abf0ebf39d9e521d621ba6364a5634e7a54f768c8629b98c3f3a93388604051610a8992919061355b565b60405180910390a150505050505050565b60606000610ace610aaa84611833565b604051602001610aba9190613449565b6040516020818303038152906040526119e0565b9050600a8054905081610ae19190613b88565b9050600a8181548110610b1d577f4e487b7100000000000000000000000000000000000000000000000000000000600052603260045260246000fd5b906000526020600020018054610b3290613b0d565b80601f0160208091040260200160405190810160405280929190818152602001828054610b5e90613b0d565b8015610bab5780601f10610b8057610100808354040283529160200191610bab565b820191906000526020600020905b815481529060010190602001808311610b8e57829003601f168201915b5050505050915050919050565b610bd383838360405180602001604052806000815250611073565b505050565b6000806002600084815260200190815260200160002060009054906101000a900473ffffffffffffffffffffffffffffffffffffffff169050600073ffffffffffffffffffffffffffffffffffffffff168173ffffffffffffffffffffffffffffffffffffffff161415610c81576040517f08c379a0000000000000000000000000000000000000000000000000000000008152600401610c78906136ff565b60405180910390fd5b80915050919050565b60008073ffffffffffffffffffffffffffffffffffffffff168273ffffffffffffffffffffffffffffffffffffffff161415610cfb576040517f08c379a0000000000000000000000000000000000000000000000000000000008152600401610cf2906136df565b60405180910390fd5b600360008373ffffffffffffffffffffffffffffffffffffffff1673ffffffffffffffffffffffffffffffffffffffff168152602001908152602001600020549050919050565b606060018054610d5190613b0d565b80601f0160208091040260200160405190810160405280929190818152602001828054610d7d90613b0d565b8015610dca5780601f10610d9f57610100808354040283529160200191610dca565b820191906000526020600020905b815481529060010190602001808311610dad57829003601f168201915b5050505050905090565b610ddc611438565b73ffffffffffffffffffffffffffffffffffffffff168273ffffffffffffffffffffffffffffffffffffffff161415610e4a576040517f08c379a0000000000000000000000000000000000000000000000000000000008152600401610e419061367f565b60405180910390fd5b8060056000610e57611438565b73ffffffffffffffffffffffffffffffffffffffff1673ffffffffffffffffffffffffffffffffffffffff16815260200190815260200160002060008473ffffffffffffffffffffffffffffffffffffffff1673ffffffffffffffffffffffffffffffffffffffff16815260200190815260200160002060006101000a81548160ff0219169083151502179055508173ffffffffffffffffffffffffffffffffffffffff16610f04611438565b73ffffffffffffffffffffffffffffffffffffffff167f17307eab39ab6107e8899845ad3d59bd9653f200f220920489ca2b5937696c3183604051610f499190613584565b60405180910390a35050565b60606000610f89610f6584611833565b604051602001610f759190613427565b6040516020818303038152906040526119e0565b905060098054905081610f9c9190613b88565b905060098181548110610fd8577f4e487b7100000000000000000000000000000000000000000000000000000000600052603260045260246000fd5b906000526020600020018054610fed90613b0d565b80601f016020809104026020016040519081016040528092919081815260200182805461101990613b0d565b80156110665780601f1061103b57610100808354040283529160200191611066565b820191906000526020600020905b81548152906001019060200180831161104957829003601f168201915b5050505050915050919050565b61108461107e611438565b836114f9565b6110c3576040517f08c379a00000000000000000000000000000000000000000000000000000000081526004016110ba906137ff565b60405180910390fd5b6110cf84848484611eed565b50505050565b60606110e0826113cc565b61111f576040517f08c379a00000000000000000000000000000000000000000000000000000000081526004016111169061375f565b60405180910390fd5b600060066000848152602001908152602001600020805461113f90613b0d565b80601f016020809104026020016040519081016040528092919081815260200182805461116b90613b0d565b80156111b85780601f1061118d576101008083540402835291602001916111b8565b820191906000526020600020905b81548152906001019060200180831161119b57829003601f168201915b5050505050905060006111c9611f49565b90506000815114156111df578192505050611222565b6000825111156112145780826040516020016111fc929190613361565b60405160208183030381529060405292505050611222565b61121d84611f60565b925050505b919050565b6000600560008473ffffffffffffffffffffffffffffffffffffffff1673ffffffffffffffffffffffffffffffffffffffff16815260200190815260200160002060008373ffffffffffffffffffffffffffffffffffffffff1673ffffffffffffffffffffffffffffffffffffffff16815260200190815260200160002060009054906101000a900460ff16905092915050565b611351816040516024016112cf919061359f565b6040516020818303038152906040527f41304fac000000000000000000000000000000000000000000000000000000007bffffffffffffffffffffffffffffffffffffffffffffffffffffffff19166020820180517bffffffffffffffffffffffffffffffffffffffffffffffffffffffff8381831617835250505050612007565b50565b60007f01ffc9a7000000000000000000000000000000000000000000000000000000007bffffffffffffffffffffffffffffffffffffffffffffffffffffffff1916827bffffffffffffffffffffffffffffffffffffffffffffffffffffffff1916149050919050565b600081600001549050919050565b60008073ffffffffffffffffffffffffffffffffffffffff166002600084815260200190815260200160002060009054906101000a900473ffffffffffffffffffffffffffffffffffffffff1673ffffffffffffffffffffffffffffffffffffffff1614159050919050565b600033905090565b816004600083815260200190815260200160002060006101000a81548173ffffffffffffffffffffffffffffffffffffffff021916908373ffffffffffffffffffffffffffffffffffffffff160217905550808273ffffffffffffffffffffffffffffffffffffffff166114b383610bd8565b73ffffffffffffffffffffffffffffffffffffffff167f8c5be1e5ebec7d5bd14f71427d1e84f3dd0314c0f7b2291e5b200ac8c7c3b92560405160405180910390a45050565b6000611504826113cc565b611543576040517f08c379a000000000000000000000000000000000000000000000000000000000815260040161153a9061369f565b60405180910390fd5b600061154e83610bd8565b90508073ffffffffffffffffffffffffffffffffffffffff168473ffffffffffffffffffffffffffffffffffffffff1614806115bd57508373ffffffffffffffffffffffffffffffffffffffff166115a58461054c565b73ffffffffffffffffffffffffffffffffffffffff16145b806115ce57506115cd8185611227565b5b91505092915050565b8273ffffffffffffffffffffffffffffffffffffffff166115f782610bd8565b73ffffffffffffffffffffffffffffffffffffffff161461164d576040517f08c379a00000000000000000000000000000000000000000000000000000000081526004016116449061379f565b60405180910390fd5b600073ffffffffffffffffffffffffffffffffffffffff168273ffffffffffffffffffffffffffffffffffffffff1614156116bd576040517f08c379a00000000000000000000000000000000000000000000000000000000081526004016116b49061365f565b60405180910390fd5b6116c8838383612030565b6116d3600082611440565b6001600360008573ffffffffffffffffffffffffffffffffffffffff1673ffffffffffffffffffffffffffffffffffffffff16815260200190815260200160002060008282546117239190613a16565b925050819055506001600360008473ffffffffffffffffffffffffffffffffffffffff1673ffffffffffffffffffffffffffffffffffffffff168152602001908152602001600020600082825461177a91906138fe565b92505081905550816002600083815260200190815260200160002060006101000a81548173ffffffffffffffffffffffffffffffffffffffff021916908373ffffffffffffffffffffffffffffffffffffffff160217905550808273ffffffffffffffffffffffffffffffffffffffff168473ffffffffffffffffffffffffffffffffffffffff167fddf252ad1be2c89b69c2b068fc378daa952ba7f163c4a11628f55a4df523b3ef60405160405180910390a4505050565b6060600082141561187b576040518060400160405280600181526020017f300000000000000000000000000000000000000000000000000000000000000081525090506119db565b600082905060005b600082146118ad57808061189690613b3f565b915050600a826118a6919061398b565b9150611883565b60008167ffffffffffffffff8111156118ef577f4e487b7100000000000000000000000000000000000000000000000000000000600052604160045260246000fd5b6040519080825280601f01601f1916602001820160405280156119215781602001600182028036833780820191505090505b5090505b600085146119d45760018261193a9190613a16565b9150600a856119499190613b88565b603061195591906138fe565b60f81b818381518110611991577f4e487b7100000000000000000000000000000000000000000000000000000000600052603260045260246000fd5b60200101907effffffffffffffffffffffffffffffffffffffffffffffffffffffffffffff1916908160001a905350600a856119cd919061398b565b9450611925565b8093505050505b919050565b6000816040516020016119f3919061334a565b6040516020818303038152906040528051906020012060001c9050919050565b60606000821415611a5b576040518060400160405280600181526020017f30000000000000000000000000000000000000000000000000000000000000008152509050611be3565b600082905060005b60008214611a8d578080611a7690613b3f565b915050600a82611a86919061398b565b9150611a63565b60008167ffffffffffffffff811115611acf577f4e487b7100000000000000000000000000000000000000000000000000000000600052604160045260246000fd5b6040519080825280601f01601f191660200182016040528015611b015781602001600182028036833780820191505090505b50905060008290505b60008614611bdb57600181611b1f9190613a16565b90506000600a8088611b31919061398b565b611b3b91906139bc565b87611b469190613a16565b6030611b529190613954565b905060008160f81b905080848481518110611b96577f4e487b7100000000000000000000000000000000000000000000000000000000600052603260045260246000fd5b60200101907effffffffffffffffffffffffffffffffffffffffffffffffffffffffffffff1916908160001a905350600a88611bd2919061398b565b97505050611b0a565b819450505050505b919050565b60606000825190506000811415611c115760405180602001604052806000815250915050611da1565b60006003600283611c2291906138fe565b611c2c919061398b565b6004611c3891906139bc565b90506000602082611c4991906138fe565b67ffffffffffffffff811115611c88577f4e487b7100000000000000000000000000000000000000000000000000000000600052604160045260246000fd5b6040519080825280601f01601f191660200182016040528015611cba5781602001600182028036833780820191505090505b5090506000604051806060016040528060408152602001613d08604091399050600181016020830160005b86811015611d5e5760038101905062ffffff818a015116603f8160121c168401518060081b905060ff603f83600c1c1686015116810190508060081b905060ff603f8360061c1686015116810190508060081b905060ff603f831686015116810190508060e01b90508084526004840193505050611ce5565b506003860660018114611d785760028114611d8857611d93565b613d3d60f01b6002830352611d93565b603d60f81b60018303525b508484525050819450505050505b919050565b611dc0828260405180602001604052806000815250612035565b5050565b611dcd826113cc565b611e0c576040517f08c379a0000000000000000000000000000000000000000000000000000000008152600401611e039061371f565b60405180910390fd5b80600660008481526020019081526020016000209080519060200190611e33929190612408565b505050565b611ed2838383604051602401611e50939291906135c1565b6040516020818303038152906040527fe3849f79000000000000000000000000000000000000000000000000000000007bffffffffffffffffffffffffffffffffffffffffffffffffffffffff19166020820180517bffffffffffffffffffffffffffffffffffffffffffffffffffffffff8381831617835250505050612007565b505050565b6001816000016000828254019250508190555050565b611ef88484846115d7565b611f0484848484612090565b611f43576040517f08c379a0000000000000000000000000000000000000000000000000000000008152600401611f3a906135ff565b60405180910390fd5b50505050565b606060405180602001604052806000815250905090565b6060611f6b826113cc565b611faa576040517f08c379a0000000000000000000000000000000000000000000000000000000008152600401611fa1906137bf565b60405180910390fd5b6000611fb4611f49565b90506000815111611fd45760405180602001604052806000815250611fff565b80611fde84611833565b604051602001611fef929190613361565b6040516020818303038152906040525b915050919050565b60008151905060006a636f6e736f6c652e6c6f679050602083016000808483855afa5050505050565b505050565b61203f8383612227565b61204c6000848484612090565b61208b576040517f08c379a0000000000000000000000000000000000000000000000000000000008152600401612082906135ff565b60405180910390fd5b505050565b60006120b18473ffffffffffffffffffffffffffffffffffffffff166123f5565b1561221a578373ffffffffffffffffffffffffffffffffffffffff1663150b7a026120da611438565b8786866040518563ffffffff1660e01b81526004016120fc949392919061350f565b602060405180830381600087803b15801561211657600080fd5b505af192505050801561214757506040513d601f19601f82011682018060405250810190612144919061274c565b60015b6121ca573d8060008114612177576040519150601f19603f3d011682016040523d82523d6000602084013e61217c565b606091505b506000815114156121c2576040517f08c379a00000000000000000000000000000000000000000000000000000000081526004016121b9906135ff565b60405180910390fd5b805181602001fd5b63150b7a0260e01b7bffffffffffffffffffffffffffffffffffffffffffffffffffffffff1916817bffffffffffffffffffffffffffffffffffffffffffffffffffffffff19161491505061221f565b600190505b949350505050565b600073ffffffffffffffffffffffffffffffffffffffff168273ffffffffffffffffffffffffffffffffffffffff161415612297576040517f08c379a000000000000000000000000000000000000000000000000000000000815260040161228e9061373f565b60405180910390fd5b6122a0816113cc565b156122e0576040517f08c379a00000000000000000000000000000000000000000000000000000000081526004016122d79061361f565b60405180910390fd5b6122ec60008383612030565b6001600360008473ffffffffffffffffffffffffffffffffffffffff1673ffffffffffffffffffffffffffffffffffffffff168152602001908152602001600020600082825461233c91906138fe565b92505081905550816002600083815260200190815260200160002060006101000a81548173ffffffffffffffffffffffffffffffffffffffff021916908373ffffffffffffffffffffffffffffffffffffffff160217905550808273ffffffffffffffffffffffffffffffffffffffff16600073ffffffffffffffffffffffffffffffffffffffff167fddf252ad1be2c89b69c2b068fc378daa952ba7f163c4a11628f55a4df523b3ef60405160405180910390a45050565b600080823b905060008111915050919050565b82805461241490613b0d565b90600052602060002090601f016020900481019282612436576000855561247d565b82601f1061244f57805160ff191683800117855561247d565b8280016001018555821561247d579182015b8281111561247c578251825591602001919060010190612461565b5b50905061248a919061248e565b5090565b5b808211156124a757600081600090555060010161248f565b5090565b60006124be6124b98461386b565b61383a565b9050828152602081018484840111156124d657600080fd5b6124e1848285613acb565b509392505050565b6000813590506124f881613c86565b92915050565b60008135905061250d81613c9d565b92915050565b60008135905061252281613cb4565b92915050565b60008151905061253781613cb4565b92915050565b600082601f83011261254e57600080fd5b813561255e8482602086016124ab565b91505092915050565b60008135905061257681613ccb565b92915050565b60006020828403121561258e57600080fd5b600061259c848285016124e9565b91505092915050565b600080604083850312156125b857600080fd5b60006125c6858286016124e9565b92505060206125d7858286016124e9565b9150509250929050565b6000806000606084860312156125f657600080fd5b6000612604868287016124e9565b9350506020612615868287016124e9565b925050604061262686828701612567565b9150509250925092565b6000806000806080858703121561264657600080fd5b6000612654878288016124e9565b9450506020612665878288016124e9565b935050604061267687828801612567565b925050606085013567ffffffffffffffff81111561269357600080fd5b61269f8782880161253d565b91505092959194509250565b600080604083850312156126be57600080fd5b60006126cc858286016124e9565b92505060206126dd858286016124fe565b9150509250929050565b600080604083850312156126fa57600080fd5b6000612708858286016124e9565b925050602061271985828601612567565b9150509250929050565b60006020828403121561273557600080fd5b600061274384828501612513565b91505092915050565b60006020828403121561275e57600080fd5b600061276c84828501612528565b91505092915050565b60006020828403121561278757600080fd5b600061279584828501612567565b91505092915050565b6127a781613a4a565b82525050565b6127b681613a5c565b82525050565b60006127c7826138b0565b6127d181856138c6565b93506127e1818560208601613ada565b6127ea81613c75565b840191505092915050565b6000612800826138b0565b61280a81856138d7565b935061281a818560208601613ada565b80840191505092915050565b6000612831826138bb565b61283b81856138e2565b935061284b818560208601613ada565b61285481613c75565b840191505092915050565b600061286a826138bb565b61287481856138f3565b9350612884818560208601613ada565b80840191505092915050565b6000815461289d81613b0d565b6128a781866138f3565b945060018216600081146128c257600181146128d357612906565b60ff19831686528186019350612906565b6128dc8561389b565b60005b838110156128fe578154818901526001820191506020810190506128df565b838801955050505b50505092915050565b600061291c6032836138e2565b91507f4552433732313a207472616e7366657220746f206e6f6e20455243373231526560008301527f63656976657220696d706c656d656e74657200000000000000000000000000006020830152604082019050919050565b6000612982605b836138f3565b91507f222c20226465736372697074696f6e223a20224120636f6c6c656374696f6e2060008301527f6f662050656c6f746f6e20776f726b6f7574732e222c2022696d616765223a2060208301527f22646174613a696d6167652f7376672b786d6c3b6261736536342c00000000006040830152605b82019050919050565b6000612a0e601c836138e2565b91507f4552433732313a20746f6b656e20616c7265616479206d696e746564000000006000830152602082019050919050565b6000612a4e6021836138f3565b91507f3c7465787420783d2731302720793d2736302720636c6173733d27626173652760008301527f3e000000000000000000000000000000000000000000000000000000000000006020830152602182019050919050565b6000612ab46009836138f3565b91507f50656c6f4e4654202300000000000000000000000000000000000000000000006000830152600982019050919050565b6000612af46010836138e2565b91507f4d6178204e465473206d696e74656421000000000000000000000000000000006000830152602082019050919050565b6000612b346024836138e2565b91507f4552433732313a207472616e7366657220746f20746865207a65726f2061646460008301527f72657373000000000000000000000000000000000000000000000000000000006020830152604082019050919050565b6000612b9a6019836138e2565b91507f4552433732313a20617070726f766520746f2063616c6c6572000000000000006000830152602082019050919050565b6000612bda602c836138e2565b91507f4552433732313a206f70657261746f7220717565727920666f72206e6f6e657860008301527f697374656e7420746f6b656e00000000000000000000000000000000000000006020830152604082019050919050565b6000612c406006836138f3565b91507f6c656e67746800000000000000000000000000000000000000000000000000006000830152600682019050919050565b6000612c806009836138f3565b91507f636c6173735479706500000000000000000000000000000000000000000000006000830152600982019050919050565b6000612cc0600d836138f3565b91507f3c2f746578743e3c2f7376673e000000000000000000000000000000000000006000830152600d82019050919050565b6000612d006038836138e2565b91507f4552433732313a20617070726f76652063616c6c6572206973206e6f74206f7760008301527f6e6572206e6f7220617070726f76656420666f7220616c6c00000000000000006020830152604082019050919050565b6000612d66602a836138e2565b91507f4552433732313a2062616c616e636520717565727920666f7220746865207a6560008301527f726f2061646472657373000000000000000000000000000000000000000000006020830152604082019050919050565b6000612dcc6029836138e2565b91507f4552433732313a206f776e657220717565727920666f72206e6f6e657869737460008301527f656e7420746f6b656e00000000000000000000000000000000000000000000006020830152604082019050919050565b6000612e32602e836138e2565b91507f45524337323155524953746f726167653a2055524920736574206f66206e6f6e60008301527f6578697374656e7420746f6b656e0000000000000000000000000000000000006020830152604082019050919050565b6000612e986002836138f3565b91507f227d0000000000000000000000000000000000000000000000000000000000006000830152600282019050919050565b6000612ed86007836138f3565b91507f3c2f746578743e000000000000000000000000000000000000000000000000006000830152600782019050919050565b6000612f186020836138e2565b91507f4552433732313a206d696e7420746f20746865207a65726f20616464726573736000830152602082019050919050565b6000612f586031836138e2565b91507f45524337323155524953746f726167653a2055524920717565727920666f722060008301527f6e6f6e6578697374656e7420746f6b656e0000000000000000000000000000006020830152604082019050919050565b6000612fbe602c836138e2565b91507f4552433732313a20617070726f76656420717565727920666f72206e6f6e657860008301527f697374656e7420746f6b656e00000000000000000000000000000000000000006020830152604082019050919050565b60006130246029836138e2565b91507f4552433732313a207472616e73666572206f6620746f6b656e2074686174206960008301527f73206e6f74206f776e00000000000000000000000000000000000000000000006020830152604082019050919050565b600061308a602f836138e2565b91507f4552433732314d657461646174613a2055524920717565727920666f72206e6f60008301527f6e6578697374656e7420746f6b656e00000000000000000000000000000000006020830152604082019050919050565b60006130f0600a836138f3565b91507f7b226e616d65223a2022000000000000000000000000000000000000000000006000830152600a82019050919050565b60006131306021836138e2565b91507f4552433732313a20617070726f76616c20746f2063757272656e74206f776e6560008301527f72000000000000000000000000000000000000000000000000000000000000006020830152604082019050919050565b6000613196601d836138f3565b91507f646174613a6170706c69636174696f6e2f6a736f6e3b6261736536342c0000006000830152601d82019050919050565b60006131d66021836138f3565b91507f3c7465787420783d2731302720793d2732302720636c6173733d27626173652760008301527f3e000000000000000000000000000000000000000000000000000000000000006020830152602182019050919050565b600061323c6031836138e2565b91507f4552433732313a207472616e736665722063616c6c6572206973206e6f74206f60008301527f776e6572206e6f7220617070726f7665640000000000000000000000000000006020830152604082019050919050565b60006132a2600a836138f3565b91507f696e7374727563746f72000000000000000000000000000000000000000000006000830152600a82019050919050565b60006132e26021836138f3565b91507f3c7465787420783d2731302720793d2734302720636c6173733d27626173652760008301527f3e000000000000000000000000000000000000000000000000000000000000006020830152602182019050919050565b61334481613ab4565b82525050565b6000613356828461285f565b915081905092915050565b600061336d828561285f565b9150613379828461285f565b91508190509392505050565b60006133918287612890565b915061339c826131c9565b91506133a8828661285f565b91506133b382612ecb565b91506133be826132d5565b91506133ca828561285f565b91506133d582612ecb565b91506133e082612a41565b91506133ec828461285f565b91506133f782612cb3565b915081905095945050505050565b600061341082612aa7565b915061341c828461285f565b915081905092915050565b600061343282612c33565b915061343e828461285f565b915081905092915050565b600061345482612c73565b9150613460828461285f565b915081905092915050565b6000613476826130e3565b915061348282856127f5565b915061348d82612975565b9150613499828461285f565b91506134a482612e8b565b91508190509392505050565b60006134bb82613189565b91506134c7828461285f565b915081905092915050565b60006134dd82613295565b91506134e9828461285f565b915081905092915050565b6000602082019050613509600083018461279e565b92915050565b6000608082019050613524600083018761279e565b613531602083018661279e565b61353e604083018561333b565b818103606083015261355081846127bc565b905095945050505050565b6000604082019050613570600083018561279e565b61357d602083018461333b565b9392505050565b600060208201905061359960008301846127ad565b92915050565b600060208201905081810360008301526135b98184612826565b905092915050565b600060608201905081810360008301526135db8186612826565b90506135ea602083018561333b565b6135f7604083018461279e565b949350505050565b600060208201905081810360008301526136188161290f565b9050919050565b6000602082019050818103600083015261363881612a01565b9050919050565b6000602082019050818103600083015261365881612ae7565b9050919050565b6000602082019050818103600083015261367881612b27565b9050919050565b6000602082019050818103600083015261369881612b8d565b9050919050565b600060208201905081810360008301526136b881612bcd565b9050919050565b600060208201905081810360008301526136d881612cf3565b9050919050565b600060208201905081810360008301526136f881612d59565b9050919050565b6000602082019050818103600083015261371881612dbf565b9050919050565b6000602082019050818103600083015261373881612e25565b9050919050565b6000602082019050818103600083015261375881612f0b565b9050919050565b6000602082019050818103600083015261377881612f4b565b9050919050565b6000602082019050818103600083015261379881612fb1565b9050919050565b600060208201905081810360008301526137b881613017565b9050919050565b600060208201905081810360008301526137d88161307d565b9050919050565b600060208201905081810360008301526137f881613123565b9050919050565b600060208201905081810360008301526138188161322f565b9050919050565b6000602082019050613834600083018461333b565b92915050565b6000604051905081810181811067ffffffffffffffff8211171561386157613860613c46565b5b8060405250919050565b600067ffffffffffffffff82111561388657613885613c46565b5b601f19601f8301169050602081019050919050565b60008190508160005260206000209050919050565b600081519050919050565b600081519050919050565b600082825260208201905092915050565b600081905092915050565b600082825260208201905092915050565b600081905092915050565b600061390982613ab4565b915061391483613ab4565b9250827fffffffffffffffffffffffffffffffffffffffffffffffffffffffffffffffff0382111561394957613948613bb9565b5b828201905092915050565b600061395f82613abe565b915061396a83613abe565b92508260ff038211156139805761397f613bb9565b5b828201905092915050565b600061399682613ab4565b91506139a183613ab4565b9250826139b1576139b0613be8565b5b828204905092915050565b60006139c782613ab4565b91506139d283613ab4565b9250817fffffffffffffffffffffffffffffffffffffffffffffffffffffffffffffffff0483118215151615613a0b57613a0a613bb9565b5b828202905092915050565b6000613a2182613ab4565b9150613a2c83613ab4565b925082821015613a3f57613a3e613bb9565b5b828203905092915050565b6000613a5582613a94565b9050919050565b60008115159050919050565b60007fffffffff0000000000000000000000000000000000000000000000000000000082169050919050565b600073ffffffffffffffffffffffffffffffffffffffff82169050919050565b6000819050919050565b600060ff82169050919050565b82818337600083830152505050565b60005b83811015613af8578082015181840152602081019050613add565b83811115613b07576000848401525b50505050565b60006002820490506001821680613b2557607f821691505b60208210811415613b3957613b38613c17565b5b50919050565b6000613b4a82613ab4565b91507fffffffffffffffffffffffffffffffffffffffffffffffffffffffffffffffff821415613b7d57613b7c613bb9565b5b600182019050919050565b6000613b9382613ab4565b9150613b9e83613ab4565b925082613bae57613bad613be8565b5b828206905092915050565b7f4e487b7100000000000000000000000000000000000000000000000000000000600052601160045260246000fd5b7f4e487b7100000000000000000000000000000000000000000000000000000000600052601260045260246000fd5b7f4e487b7100000000000000000000000000000000000000000000000000000000600052602260045260246000fd5b7f4e487b7100000000000000000000000000000000000000000000000000000000600052604160045260246000fd5b6000601f19601f8301169050919050565b613c8f81613a4a565b8114613c9a57600080fd5b50565b613ca681613a5c565b8114613cb157600080fd5b50565b613cbd81613a68565b8114613cc857600080fd5b50565b613cd481613ab4565b8114613cdf57600080fd5b5056fe416e204e465420772f20494420257320686173206265656e206d696e74656420746f2025734142434445464748494a4b4c4d4e4f505152535455565758595a6162636465666768696a6b6c6d6e6f707172737475767778797a303132333435363738392b2fa264697066735822122015d29926598d6da8e1014e7c50b13664aca172049fa07937746a7868610f7f1a64736f6c634300080000333c73766720786d6c6e733d27687474703a2f2f7777772e77332e6f72672f323030302f73766727207072657365727665417370656374526174696f3d27784d696e594d696e206d656574272076696577426f783d273020302033353020333530273e3c7374796c653e2e62617365207b2066696c6c3a2077686974653b20666f6e742d66616d696c793a2073657269663b20666f6e742d73697a653a20313470783b207d3c2f7374796c653e3c726563742077696474683d273130302527206865696768743d2731303025272066696c6c3d27626c61636b27202f3e",
  "linkReferences": {},
  "deployedLinkReferences": {}
}